:020000040800F2
:1000000000500020117C0108AD7C01080DFD0008A6
:10001000AD7C0108AD7C0108AD7C0108000000004A
:10002000000000000000000000000000AD7C01089E
:10003000AD7C010800000000AD7C010817A4000899
:10004000AD7C0108AD7C0108AD7C0108AD7C0108E8
:10005000AD7C0108AD7C010843A700084DA700084E
:100060004BA7000849A7000847A700083965000802
:10007000296500081965000809650008F964000889
:10008000E5640008D1640008AD7C0108AD7C01087E
:10009000AD7C0108AD7C0108AD7C010845A70008D6
:1000A000AD7C010891060108AD7C010881060108BC
:1000B000710601086106010851060108DF6B00089E
:1000C000E56B0008D56B0008DB6B0008AD7C010810
:1000D000AD7C010855A4000849A40008AD7C0108C6
:1000E00041A70008AD7C0108AD7C010800000000BC
:1000F0000000000000000000000000000000000000
:0C01000000000000000000005FF808F1A3
:100110002DE9F04F0B4B0C4D0C4AC5F8B8340023B9
:1001200010680B49A1B08842C5F8BC3416D11360E1
:1001300062B6084B186812F039FB074B1B689847EA
:10014000FEE700BF4594000800060020F04F0020A5
:10015000EFBEADDE00F0FF1F04F0FF1F0A930B930C
:100160000C934FF4E013BB4C0D93236843F480339E
:100170002360A36943F01003A361236803F40033F1
:100180000B930A9B01330A930B9B1BB90A9BB3F594
:10019000A06FF2D1236813F4003300F09A82022397
:1001A0000C93AD4BAD4F1A6842F010021A601A68FA
:1001B00022F003021A601A6842F002021A606368B1
:1001C000636063686360636843F480636360A44B47
:1001D0001A68043B22F070425A60A24A3A60626890
:1001E00022F47C1262605A6842F000425A60DA6877
:1001F00022F40042DA609B681E0449BF9A4B4FF418
:10020000E0133B604FF480130D930C9B012B00F027
:100210007882022B05D10D9B6268134343F480332F
:100220006360236843F08073236023689801FCD5E2
:10023000636823F003036360636843F00203636051
:10024000636803F00C03082BFAD16368DFF86C8253
:1002500003F00C03042B00F05882082B00F05782A7
:10026000804BC8F800306368DFF85492C3F303137F
:1002700019F80320D8F80030DFF848B2D340C8F8A6
:1002800000307A4B4FF6FF72CBF80C30A3690DF1BA
:10029000800A43F00103A361636A636A744E43F00A
:1002A00080736362A369304643F01C03A36100239B
:1002B00015932AF82C2D514613F032F851466D480B
:1002C00013F02EF851466C4813F02AF802214FF42F
:1002D00000728DF846101021ADF844208DF84710BB
:1002E0003046326111A913F01BF8644950464A6840
:1002F00042F000724A6012F045F9159B604A3046A0
:10030000B3FBF2F34FF47A72C5F8C034D8F800307A
:100310004FF0010CB3FBF2F35A4A013B5360F02358
:100320008BF82330002393600723DFF89CE11360F0
:10033000554A09F10E01002331F8026F46FA03F81D
:1003400018F0010F18BF0CFA03F803F101031EBFE8
:100350001060A2F804800832102BEFD100F5806005
:100360007045E8D13B683F4A934240F0E281012367
:1003700085F8C43409F07DFD18B910F031F80FF09C
:1003800013FD0FF04FFE0522404941481AF052FB81
:1003900018B110F025F80FF007FD95F8C5343D4F62
:1003A00043F0010385F8C5343B4B07F1050A9A7801
:1003B0003A4B1A703A4B3B4A1B689046136095F8CB
:1003C000CA3485F8C6340023D85D4FEA830B5E1C1F
:1003D000002800F0B48103930AF0C0F8039B4AF8A8
:1003E000230010B10523C671837112215AF80B0046
:1003F0000AF0DAF8032E3346E6D1002108460AF067
:1004000035F9002101200AF031F9002102200AF01B
:100410002DF9012102200AF029F9A369002143F0F6
:100420000103A361402220481AF0C1FA4FF0FF33C4
:100430001E4AC5F818356420C2F8033009F0E1FF00
:10044000A02200211A481AF0B2FA0024194D1A4EBF
:100450003CE000BF0010024000200240FC000020F1
:100460000410014000127A00001BB7000005FA05D5
:1004700000080140000C0140001001400000014054
:1004800040420F0010E000E0341C002054C9010875
:1004900005200020C70A0020002000208421002021
:1004A000CC20002090290020D80A0020180B002022
:1004B000DC3A002068C8010820AB010820000020B9
:1004C00008AB010800ED00E0001401400023605972
:1004D00056F83310DA00884240F0348109EB020309
:1004E000187F103412F022FCE02CEFD1AB4AAC4C58
:1004F0000021A4469146AB4E00250B5D01F10F0093
:10050000204406EB030A10F801EFBEF1000F05D0FE
:100510009AF80C70774508BF82F8587090F803E09D
:10052000BEF1000F04D0F75C774508BF82F8597020
:100530000135032DE7D1B2F8580040B10CEB0100B2
:1005400009EB83035065C3F8202502F517721C31AF
:100550003829D1D10424914F202200219248D8F883
:10056000005087F82C451AF022FA00208D4B0246E5
:1005700093F80BE093F80AC04FF0FF092346039766
:1005800089498A4F05F04006D4571E2C8C7140F0E3
:10059000DF80002E00F0E480BCF1000F00F0E0806E
:1005A0000132042A01F10801EED110B1039A82F858
:1005B0002C357F4B15F4805F93F800A07D4BDFF85E
:1005C000449283F800A07C4F7C4C7D4E00F0CE809E
:1005D000B88816F0CFFE7B4BC9F800002360708A04
:1005E00016F0C8FE784B794C1860788816F0C2FE79
:1005F000774B00251860388816F0BCFE754B1860E4
:10060000608BC0F5FA6016F0B9FE734B248B18604E
:10061000FB88724AE01A1C44714BA4B280B210806D
:100620001C80A0F57A7016F0A9FE6E4B1860C4F518
:10063000FA6016F0A3FE6C4B6C4C1860AAF117031D
:10064000022B257000F2E2804FF0000BDFF8B8A11A
:1006500005EB0A03594655F80A00049317F076F89B
:10066000049B002800F08C80D8F8003013F4805AE6
:1006700040F0ED800023D9F800105D4A42F82310C5
:100680000133082BFAD1B6F81480BAF1000F01D06B
:10069000B7F80480B378042B05D14FF4805009F0EB
:1006A00007F84FF000082378C02200215148069334
:1006B0001AF07DF93779B378003718BF0127042B7A
:1006C00000F2EA80DFE813F02206E8002406F400D6
:1006D0001B06226842F0010222600A93236803F09D
:1006E00002030B930A9B01330A930B9B1BB90A9BD2
:1006F000B3F5A06FF2D123689F0701D501234FE521
:10070000FEE7636843F460138AE53B68A9E5636824
:100710006268C3F38343D10303F1020302D4364A70
:1007200053439EE5626812F4003F3A6818BF5208CE
:10073000F6E7324A93427FF41DAE022318E64AF8E8
:10074000230057E60133042B7FF4C2AE0020C8E635
:100750001F2C7FF425AF1EB1BEF1000F7FF420AF38
:10076000013B81F80690DBB2012019E7B08A16F050
:1007700001FEC9F80000308A16F0FCFD20602EE76B
:100780001F4A05EB020E0FCB8EE80F0023781035C1
:100790000133802D23707FF45BAF65E700060020F6
:1007A00040AB0108F02600207C2C002078AB01082B
:1007B0008C21002080110020643C002000380020A3
:1007C000E837002000007A44FC1F00206429002044
:1007D000BC1100209C110020C411002096110020A3
:1007E000B8110020B4110020C011002004380020EE
:1007F0004C2700207427002000093D00001BB70093
:10080000C8110020BC2800204C1D0020244B13F8E8
:100810003A2003EBCA0A082A227088BF0822DAF8B5
:1008200004C088BF2270BCF1000F3FF41DAF00254B
:10083000DFF878A023789D42BFF616AF2B0103EBBB
:100840000A0E63440FCB01358EE80F00F2E72378E0
:10085000012B7FF60FAF4FF07C58124D05EB0313C1
:1008600003F1100B1035AB453FF404AF414655F88A
:100870000C0C16F0D7FD414645F80C0C55F8100C41
:1008800016F0D0FD414645F8100C55F8080C16F04E
:10089000C9FD45F8080CE5E7034CA1460BE000BF95
:1008A000F0B10108CC1100206F120339C8110020EB
:1008B000B94CDFF83893B94AB94B21461A60B94AA6
:1008C000B94B4846002F18BF1346B84A002513609D
:1008D00016F0A0FC01464FF07A5016F057FEB449CE
:1008E0000590204616F09EFDB24CDFF804B3079049
:1008F000069BAB4240F36C8505EB0B035E79002150
:1009000030460FF08BFE0490002840F00485AA4A80
:10091000A34B1A60A34AA54B1A60A84CA84A94F8A6
:10092000C534079243F0040384F8C534136813F008
:10093000010600F070850025FF2294F82D75A14B6B
:100940002946384683F840501D605D609D60DD6338
:1009500083F8412083F8422083F8435083F84450C1
:1009600083F845500FF05AFE064690B3036891494C
:100970006A18507C18B15268934200F041851835CE
:10098000C02DF5D10025C4F83C6584F830553846B3
:1009900009F0E4FD10B10223C571837100252A21FD
:1009A00009F002FE884A0021304609F02FFC874BEF
:1009B000874AC4F84035874B111F3046C4F8443588
:1009C000C4F8485509F076FC2A467179306810F071
:1009D000BBFAB4F81E7694F81A66A4F8207630466E
:1009E000002F40F0668509F0B9FD94F81B26C4F885
:1009F0002406003218BF012284F8282650B1242290
:100A000094F81C368271002BC7710CBF122116217D
:100A100009F0CAFD002009F0FDFD4FF000096E4B02
:100A20000020C4F8483605F035FD012005F032FD00
:100A30006A4B6B4803F1200853F8056C6EB313F949
:100A4000092CA11891F84C7691F84EE691F850C611
:100A500000EB0215991E11F801AFBA4591F802A0FA
:100A600008BF2F71F24591F804A008BF85F805E092
:100A7000E24508BF85F806C08B42ECD1120181180F
:100A80000D7955B14D7945B18D7935B186505A7989
:100A900081F80C90CA719A790A7210339845CBD1BB
:100AA0004F4D12F0F3F912F0F1F9287E12F03EF9F1
:100AB00001232A7E02F01F015209022A03FA01F3E0
:100AC00000F02485032A00F02785287D09F046FDE3
:100AD000064618B1122383710223C371687D09F0A1
:100AE0003DFD18B1132383710223C371A87D09F062
:100AF00035FD18B1142383710223C3711B213046C5
:100B000009F052FD687D09F029FD072109F04CFD2F
:100B1000A87D09F023FD1B2109F046FD2A69314B10
:100B20009A4240F0FF8403F56043D96841F4805154
:100B3000D960D96821F48051D9602B7F002B00F057
:100B40000E8500231846118801F4415141F4457186
:100B50000B4303431380938B23F400631B041B0C90
:100B600093830723138213889BB243F040031380BF
:100B700094F8C434032B40D11F200AF05CF8002302
:100B8000194A02EBC30191F90210022901F0F58321
:100B90000133042BF5D12DE0ACC5A737F15F010877
:100BA00070310020715F01081D6001087431002060
:100BB0006F12833A74270020735F0108000600203B
:100BC00090290020943A002040420F00055E010861
:100BD000440B0020415F0108F026002085AB01088E
:100BE0000016002000300140562C0020ACC5A7366E
:100BF000E837002002200AF01EF808F03BFC012034
:100C000005F0A2FC2C2009F0A9FC039BC3F85406B4
:100C10009F238DF84430002332208DF845308DF825
:100C200046308DF8473009F0ECFB039BD3F85406AF
:100C300009F0DCFC15AA042311A9BC4809F0A8FDA1
:100C4000039BD3F8540609F0D6FC9DF856309DF866
:100C500055201B0243EA02439DF857201343B44A30
:100C6000934223D0322009F0CCFB039BD3F85406E7
:100C700009F0BCFCF521AD4809F0B8FDFF21AB48F7
:100C800009F0B4FD039B8DF85400D3F8540609F025
:100C9000B2FC9DF85430702B08D1039B93F8C434F8
:100CA000022B03D10323039A82F8C434A14B5F794A
:100CB0009E797D1E6A4206F1FF3E6A41DEF1000325
:100CC00043EB0E0384F85C36079B84F858261D68B6
:100CD0002B0400F1488415F0007505D0964BDD7AA1
:100CE000A5F108004542454114220021934884F8AB
:100CF0005A5619F05CFE012F04BF94F8593684F857
:100D000060361DB194F85B3684F86F3694F85E3621
:100D10001BB194F85F3684F86A36012E08BF94F848
:100D20005D36864D08BF84F8653600232E464FF0A9
:100D3000070B1F469946DFF8248208F1940A3078A1
:100D4000E8B109F00BFC18B180F806B080F8079004
:100D5000002109F029FC002331781AF813005A0009
:100D6000884240F0038408EB020393F895307370D7
:100D70000723337101237A1CB770F370D7B20BF1DC
:100D8000010B5FFA8BFBBBF10B0F06F10506D6D109
:100D9000002B00F0BB806A4E4920736843F4404347
:100DA000736011F0C3FF674A674900234FF01C0EC0
:100DB000104688460EFB032CDCF804C08C4540F03E
:100DC000DC83DBB21C2101FB0303726919694FF05C
:100DD00000090A437261062283F819901A765A486C
:100DE00011F045FC15A811F017FC584B022F159374
:100DF00034BF4B4680231A934FF480731B934FF4F8
:100E000080631C9320231D934FF40053504E15A96B
:100E10004D4818971E931696CDF85C90CDF86490C7
:100E2000CDF87C9011F005FC012F94BF0022012227
:100E3000D8F80030474943F00103C8F800304B6848
:100E40004FF0070E23F4702323F4807343EA022348
:100E50004B608A68404B134043F4602343F0020325
:100E60008B60CA6A7B1E22F47002DBB242EA035333
:100E7000CB621F270123EA784AB395F80180581CFA
:100E8000B8F1090FC0B295F804C040F27C83A8F114
:100E90000A02D1F80C9002EB42020EFA02FA29EA99
:100EA0000A090CFA02F242EA0902CA60062B00F2B1
:100EB000778303F1FF3C4A6B0CEB8C0C07FA0CF3C5
:100EC00022EA030308FA0CF21A434A630346053583
:100ED000AE42D0D11F4B9A6842F480729A609A68F1
:100EE00042F001029A609A6842F008029A609A6899
:100EF0001107FCD49A6842F004029A60154B9A6874
:100F00005207FCD49A6842F4A0029A60D4F87C0696
:100F1000002841F03D82D4F88036002B41F0388221
:100F2000D4F88436002B41F0338219E000380040B9
:100F300015202000DE2E002064290020600C0020F7
:100F40000010024024000020080002404C24014010
:100F5000740C002000240140FDF7F1FF08AB0108EC
:100F60000BF0F6FF30B90120022109F0BDFB012092
:100F700015F08CFC94F8C53443F0020384F8C534B2
:100F80000EF0BEFFB04B18680DF028FBAF4B1A886F
:100F9000AF4B1A80AF4B5A6B99460AB10BF0C0FFAA
:100FA000AD4BAE491B78AE4CD80001444A78AD49F0
:100FB0002260079A1268114009B1012222600021C3
:100FC00040F2DC55A84A22F8115001310829FAD123
:100FD0002268002A40F0018303F0EF02082AA34AA6
:100FE00040F040831178182B41F01001117001D1AD
:100FF0000DF0B0FA23689E4D002B40F03C83AB8986
:10100000002B40F072830121084609F02FFB0021DC
:10101000084609F02BFB0021022009F027FB0A24D7
:10102000944D012009F08CFA002009F089FA19206A
:1010300009F0E7F92B68DF0302D4012009F0EAFA8E
:10104000192009F0DEF9002009F0E4FA013CE8D1AA
:101050002146204609F00AFB2146012009F006FB43
:10106000854B864D587A16F089F9854916F0DAF9DC
:10107000844916F0CFF808F09CFD834B15AF18603B
:10108000B9F8140016F07AF90146804816F07EFA95
:10109000C5F8880613F034F90123159310237C4A10
:1010A00016931368904613F4800F04BF794A159283
:1010B000DE005EBF159A42F010021592764A116862
:1010C000880748BF159A754844BF42F0C60215927A
:1010D0004A0748BF159A039044BF42F00802159290
:1010E000159A42F000611591017801F0EF06082E83
:1010F00001D00E2904D142F0006242F480521592D0
:10110000159ADE0354BF42F4005242F42042159275
:10111000159AD8044CBF42F0644242F04442159202
:101120009A0642BF159A42F4807215925E0742BF3A
:10113000159A42F400321592159A42F40020159047
:10114000580505D5564B1B7913B142F4C0121592C0
:101150004FF00109182902BF159B43F060731593E6
:1011600021463846E6B208F0C7FE70B1304615F0A9
:1011700040F950B9620957F8223006F01F0609FA03
:1011800006F623EA060647F822600134252CE7D14B
:10119000DFF82CA197E803004FF419728AE80300E6
:1011A00000210AF1080019F002FC09F063FF002297
:1011B000DFF810E13B4BF4461A809A703A493B4BFA
:1011C0003B4E3C4C3C481960DFF8FC90338BDFF819
:1011D000FCB0C4F80490A06085F8F82819B2049017
:1011E0000AF51C7ADBF800002EF8121000F5967054
:1011F0004AF822000132122AF4D1D8F80000C204C1
:1012000058BFB6F92410ACF806102C49DFF8B4C06A
:1012100001F1500E0A78002A5AD18A7891F803A079
:10122000524555D2002A00F07082013A02EB820248
:1012300002EB820202F5617291F801A092B20AF10A
:10124000040A2CF81A2043E0A0200020AA20002045
:101250008C1500202820002080110020F0B101080A
:1012600048120020200010005821002065150020A1
:10127000B81A0020581E0020AC31002000060020C3
:1012800035FA8E3CDB0FC93FCC310020A889803A6B
:101290009029002001000010882100208C210020CE
:1012A000D8280020F02E0020A08601001818002069
:1012B000642900205429002079DD0008641E0020E4
:1012C0008C0C0020AC2E00207DDD0008242900209D
:1012D00004318E459ED1020740F13282307A0A28CD
:1012E00000F22782DFE810F022022202A504E604C1
:1012F0000A052A052A05B7052502F405220200245D
:10130000A14601274FF00008FFF7D5BAC24CF7E716
:10131000C24CFFF7C2BA304609F020F96B1C60617D
:10132000DBB210B10322C37182711A2109F03CF9BA
:10133000002F52D0BBF8000016F020F816F074FA17
:10134000B74B4FF6FF7A1E68B6FBF0F353441B0C05
:10135000B6FBF3F60FB1B6FBF0FA9BF80230042BA4
:101360003FD1504616F006F8AB4916F05BF8A06086
:101370000990304615F0FEFF494616F053F8099BD8
:101380000890A849184616F04DF8089A01461046EC
:1013900015F03EFF9BF80330E0603246019304995C
:1013A0001FFA8AF3CDF80080204614F081FE002356
:1013B00018229D49AB4219D1002383F00103237405
:1013C00001231D44082D637404F118047FF490AACE
:1013D0000122964B1A70FFF7A0BA059816F092FFFB
:1013E000ACE7304615F0C6FF0799BEE702FB0310D5
:1013F00046686068864201D00133DBE70123DCE701
:101400001B8D874A9BB212680133B2FBF3F3884A03
:101410001370FFF7B7BA9A047FF5DBAA94F8182681
:10142000844B04F5A8651A7004F5C26816F8089094
:10143000002148460FF0F2F8074698B300224FF01B
:10144000010A5FFA86FB05F80FBC45F8040C05F8A5
:101450000E2C05F80D2C05F810AC484609F07EF866
:10146000D3445FFA8BFB18B180F806A080F807B070
:101470004FF0000B2A2109F097F86F4A00213846F7
:1014800008F0C4FE6D4B2A1D2B606D4B2946384673
:101490006B60C5F808B008F00DFF5A4679793868D6
:1014A0000FF052FD0136082E05F11C05BED1FFF7E5
:1014B00090BA09F053F84021C4F84006054630467A
:1014C0000FF0ACF80646CDB1C0B12423AB710123B7
:1014D0001A21EB71284609F067F80021A4F8447638
:1014E00001915849544A91FBF7F192FBF7F389B205
:1014F00000919BB23146544814F0DAFD0023D4F831
:101500002C26138084F83D36FFF787BA4F4AD168FE
:101510000B43D360FFF7D9BA4C4A11690B431361EF
:10152000FFF7D3BA4A4B9A420BD103F5EC33196952
:1015300041F480411961196921F480411961FFF773
:10154000FCBA444B9A427FF4F8AA03F5EA331969CE
:1015500041F400411961196921F40041EEE70123CA
:101560000220FFF7F0BA0125FFF7BEBB01330A2BBB
:101570007FF4F3AB0023FFF7FABB0133072B7FF4B3
:1015800019AC00231EE40A6908EB480A0EFA0AF9AE
:1015900022EA09090CFA0AF242EA09020A6185E420
:1015A0000C2B0DD8DA1FD1F830C002EB820207FAFB
:1015B00002F32CEA030308FA02F21A430A6385E4F1
:1015C0000D3BCA6A03EB830307FA03FC22EA0C0211
:1015D00008FA03F31343CB6278E41F4A1F4912F859
:1015E00033E00244556881F800E0002D3FF4F4AC8C
:1015F00000221B4E7245BFF6EFACC2EBC2002918A9
:10160000D1F800C0871940F806C088880132B88038
:101610008979B971EEE700BF6F12833A2829303813
:101620002000002000007A44742700204C12002083
:10163000280400201427002040420F00955F010875
:10164000DD5D010820A107002C0C002000100240E5
:1016500000380040003C00400CB10108591900203E
:101660005A1900200E2B3FF4BDAC1178192B21F034
:1016700010011170BBE400244FF0040B274EDFF87B
:10168000A0A005F1030818F8017F002F3FF4B7ACC4
:10169000384608F063FF013403467061E4B210B1CC
:1016A00080F806B0C4710021384603930EF0B6FFEF
:1016B0000746039B1A21184608F076FF002F3FF4D7
:1016C0009EAC00226B8801929AFBF3F32A889BB2AE
:1016D00000923046124A394614F0EAFC0123082CE5
:1016E000737406F11806CED189E400240D4F0E4E16
:1016F000A88915F03FFE3A6801463019243408F0F5
:1017000069FBB4F5907FF3D17DE40AF1010A0AEB9D
:101710008A0A0AEB8A0A0AF561728DE57C3B002091
:1017200040420F006C2100207012002011F0BDFB20
:1017300030B9082007F0BCFF049BC4F80490A360F4
:10174000D8F8002051040BD51223237044F62063EF
:101750006380C24BC2496360C24BA360C24B196035
:1017600042F201031A4209D044F6206363809304D5
:1017700040F1D68308232370BC4B636096F8283071
:10178000217804338B42A8BF0B464FF0000AB84CB7
:10179000D10385F8443984F800A040F1528113F058
:1017A00029FA01232370B34B40F22A3293F8F1B0A7
:1017B0005146B14819F0FBF8BBF1000F00F034813D
:1017C000514658460EF02AFFAC4B026804461A6098
:1017D00082689946002A00F02781584608F0BEFE2C
:1017E000C5F8480918B1282380F807A083711B2188
:1017F00008F0DAFE0023A24AD9F8001002F1180E10
:101800005EF833004FEAC30C814240F0908362449B
:10181000107F11F08BFAD9F800009A4A03884FF034
:10182000000A23F001031B041B0C0380964BDFF816
:101830007CE21B68ADF83EA0934281BF03F1B77212
:10184000924902F55852B2FBF1F292BF002202F126
:10185000FF3292B2511CB3FBF1F38D49ADF83AA0BF
:10186000B3FBF1F303219BB2B3FBF1F14FEA410C5F
:10187000AEF800C0DFF838E28DF840A0AEF80010F6
:1018800020A921F8482DADF83C3011F0B8FA6023BA
:10189000ADF846A0ADF848A0ADF84AA0ADF84CA010
:1018A000ADF850A0ADF84EA0ADF852A0ADF8443060
:1018B000E379D9F800005A0757BF0122042303F047
:1018C0000203ADF846204EBFADF848304FF48072A9
:1018D000ADF84C304FF0000358BFADF85020ADF8D4
:1018E0004A3011AA61790EF0A5FD6179D9F800009E
:1018F00011F058FAD9F800206648B2F844304FF099
:10190000000B6FEA43436FEA53439BB2A2F84430A3
:101910001388DFF8A0A19BB243F080031380E37922
:10192000617913F0040F14BF042301238B40118C41
:101930009BB289B221EA03011184118C89B20B4355
:10194000138413889BB243F0010313801C22217B74
:10195000514B02FB013143690A6913434361282358
:1019600081F819B00B7643691A4342614B4AC1F8BA
:1019700014B08A604A7B15A88DF8542001228DF896
:1019800056B08DF855208DF8572011F0EDF9A0686C
:10199000CAF8000010F06BFEDAF80000026822F0CE
:1019A00001021204120C026010F061FE15A810F082
:1019B00033FED9F80020617934320A44159240F29E
:1019C0002A32189280221A922B4A15A916921022B6
:1019D00017924FF400721B924FF40052DAF8000095
:1019E000CDF864B0CDF870B01E92CDF87CB0CDF8D3
:1019F00074B010F01EFE6279D9F800100C2A8EBF68
:101A00005B461F4B03EB420B8A8998BFBBF8A8309B
:101A100092B21343DAF800208B81136843F002037B
:101A2000136001221E4B1A700023FF211C461D4823
:101A30001A181C520433802B9170D170F8D113F016
:101A400049F9D8F80030580578D5042009F0F0FAA3
:101A5000154B0421186009F0E1FA2DE0F5DD0008CE
:101A6000400D0300DDDD000818180020CDDD000862
:101A70008B2E0020042D0020F03300202037002082
:101A800008AB0108FF6BDC0220000020006CDC02C8
:101A900000350C000010024024000020F95E000810
:101AA0001A370020F82D002010290020EE330020E6
:101AB000EC3300201C370020BD4B1870082009F0C3
:101AC000B7FABC4B0821186009F0A8FABA4B2C22CF
:101AD00018700021B94818F06AFF7C2385F84C394A
:101AE0008E2385F84D39E02385F84F397D2320205A
:101AF00085F8773909F09CFAB14B2021186009F07C
:101B00008DFAB04B1870102009F092FAAE4B1021EC
:101B1000186009F083FAAD4B18704FF4805009F04B
:101B200087FAAB4B4FF48051186009F077FA002226
:101B3000A84B1870A84B1A7010F0C4FFA74C22884D
:101B4000002A40F02A82A64B95F88809C5F8783912
:101B5000022385F87C3995F88939013B5BB2012B6A
:101B6000DEBFA04A1B01D258C5F88029002800F02A
:101B7000148208F0F3FCC5F8840918B11A238371A4
:101B80000023C371132108F00FFDD5F87839986848
:101B900008F031FD00BFD5F878390221586808F007
:101BA000D6FD4FF000089F2332208DF844308DF889
:101BB00045808DF846808DF8478008F022FC8DF82E
:101BC000558000BFD5F87839986808F00FFDD5F832
:101BD00078093A4611A90423406808F0D9FDD5F8E0
:101BE0007839986808F007FD00BF9DF856309DF8D9
:101BF00055201B0243EA02439DF8572013437A4ABB
:101C0000934200F0258300F30E83A2F52102A2F592
:101C1000CC42934200F01C8300F3B281A2F51A4239
:101C2000023A934240F0B481202323804FF4807322
:101C30006FE30A221B0193FBF2F300226B49A3F529
:101C4000B06341F822300132122AFAD142F6F82369
:101C50006380674B40206360664B2270A36009F08D
:101C6000E7F9824600283FF464AD10F013FF737A61
:101C7000B17A00280CBF01220322002B0CBF0623DF
:101C8000072300290CBF002108219AF902E08246AF
:101C90000B438DE80C00584B584A4021704609F020
:101CA00013F8BAF1000F01D0554B1860003018BF7F
:101CB00001203DE51023237042F6F8236380514B49
:101CC00040206360504BA36009F0B2F982460028BF
:101CD0003FF42FAD10F0DEFEB27A00280CBF0123D6
:101CE0000323002A0CBF002208229AF902E0019285
:101CF000009382464FF4E133444ACEE70823237031
:101D000042F6F8236380424B40206360414BA3605E
:101D100009F08EF9824600283FF40BAD10F0BAFEB0
:101D2000002200280CBF012303239AF902E001924C
:101D3000009382464FF4E133374AAEE700234FF079
:101D40000C0E364A36491370364A062884F800E0ED
:101D50000B70137074D01B22334B4FF4E13B1A709D
:101D60000522324B83F800E0314B1A7042F6F8231B
:101D70006380304B402063602F4BA36009F058F91B
:101D8000824600283FF4D5AC10F084FEB27A0028D9
:101D90000CBF01230323002A0CBF002208229AF95A
:101DA00002E00192009382465B46244A75E700BF39
:101DB0001429002004290020152900204C0F0020A0
:101DC0001C29002017290020282900202D29002067
:101DD000302900202E2900202F2900201404002063
:101DE0007C0F0020001600201720C20028170020BA
:101DF00011D900082DD90008A0860100C9E100080A
:101E00009C29002049D800085DD800089DDF000803
:101E1000C1D70008D9D7000855DF0008A118002055
:101E20005C150020A0180020501600207416002019
:101E3000A2180020BFCC0008D5CC00087DDE000829
:101E400021223E4BDFF834B11A703D4B83F800E09D
:101E50003C4B18708AE74FF0000B3B4B402083F857
:101E600000B00E23237044F620636380374B636019
:101E7000374BA36009F0DCF800283FF45AACB0F807
:101E800000A0344B0AF4825A83F800B0B37ABAF552
:101E9000825F90F9020014BF01220322B3B9BAF5A0
:101EA000825F14BF5B4608238DE80C0040214FF48D
:101EB000E133294A08F008FFBAF5825F7FF4F6AEF5
:101EC0000022264B1860264B1A70EFE60823EBE73A
:101ED0000A221B0193FBF2F300222249A3F5B0630F
:101EE00041F822300132102AFAD141F60B236380E7
:101EF0001D4B402063601D4B2270A36009F098F8D1
:101F000000283FF416AC03234FF0000E90F90200B6
:101F1000174A8DE808404021164B08F0D5FEC5E66B
:101F2000D0077FF52BAC0C232370134B25E4013332
:101F3000042B7FF465AC00206BE400BF501600203A
:101F400074160020A2180020F318002005DE0008F7
:101F500059E30008F118002081E20008C42800209D
:101F6000D02800208C170020ADDA000831DB0008F3
:101F70001DE20008A0680600BDDD000890D0030047
:101F8000B44A934200F0C281B34A934200F05E81AA
:101F900000232380A3816360A360A568B5B14FF0DF
:101FA0000008ED0A0DF15409A8450ADA08EB05040A
:101FB000641010223946E0020FF0A0FB0F2800F356
:101FC000BD8107F0C3FFA54BED021D600023A44AAD
:101FD000A44C1360A44A1380A44A1380A44A13801B
:101FE000A44A1360A44B1A6899461F2A40F0B08196
:101FF0004FF48063A14A23801188A148002940F052
:10200000B081018092789F4B02B101221A70B4F91D
:1020100000309D4A1B021360039B9C481B789C4C1C
:10202000052B02BF4FF4C8729A4B1A800AF0DCFEEF
:10203000C822994B00211A80984AA4F88E19137867
:10204000A4F8901943F0080313700423944A84F809
:102050008C391370934A944B1170642219705A7022
:102060005960924B19805980914B5A799A46012AAE
:102070000BD1282204F6941018F099FC4CF250323F
:102080008C4904F6981007F0A5FE00218A4B84F8CD
:10209000BC191960596099609AF80630012B09D172
:1020A0001022864818F083FC4CF25032844985484F
:1020B00007F090FE844BDFF850821B68834AC8F813
:1020C0000030834B4FF0010B1B6880209B1A18BF18
:1020D0000123804A804F137014F0D8FB0021402266
:1020E0007E4884F8F4B918F062FC00237C4A7D4DE8
:1020F0003846C4F8F839136008F008FD2B68D90792
:1021000009D5D9F800305946642BB8BF6423584626
:102110007B6408F033FD2B689A0709D50121022062
:1021200008F02CFD704B5B6B642BB8BF6423BB675E
:1021300029680320C1F3400108F020FD012105209A
:1021400008F01CFD694B9AF805B01A8C684B072003
:1021500093FBF2F3642BB8BF64231BF10001C7F8B3
:10216000143118BF012108F009FD9AF806900820E3
:1021700019F1000118BF012108F000FD9AF80A309A
:10218000002B40F090819AF80B30002B40F08B81AF
:10219000D8F80010C1F38041BBF1000F03D1B9F1B1
:1021A000000F00D14946092008F0E8FC0121042075
:1021B00008F0E4FC4F4B0620197808F0DFFC012101
:1021C0000A2008F0DBFC29680B20C1F3800108F02D
:1021D000D5FC2B680C2013F0140F14BF0121002133
:1021E00008F0CCFCD8F800100D20C1F3802108F0D5
:1021F000C5FCD8F800104B0507D5337A083B012BF6
:102200009CBF4FF4FA63C7F8B432C1F300410E200B
:1022100008F0B4FC94F8C53463F07F0384F8C53447
:1022200021B0BDE8F08F344A934211D004DC334A28
:10223000934208D0324AF4E4324A934266D00132E3
:1022400093427FF4A5AE4FF40073EEE44023ECE438
:102250008023EAE418BA20001620C2003837002094
:10226000CC370020C4370020D0370020D2370020E0
:10227000D4370020C8370020442C00202837002005
:10228000C6370020D6370020082200206C2A002004
:1022900000060020202200201E22002065150020BC
:1022A000D92E0020E628002088100020D228002007
:1022B000DE2E0020CDCCCC3D20210020C00F002000
:1022C000CDCCCC3ED00F0020CC200020735F010885
:1022D000703100204C12002000010020E01B002083
:1022E000DC1B00208821002028200020562C002004
:1022F00040420F00A12900201740EF001920C20022
:102300001540EF001840EF00902900204FF4807333
:102310002380A381638822881B0263605343B3F147
:10232000807FA360614D05D90123B72085F88A39E4
:102330000FF028FA012385F88B392EE6002359F88F
:102340002320013220D10133042BF8D125462BE67E
:102350003F2A16BF4FF4FA434FF40073B3FBF2F376
:1023600048E6B4F90030994204DD1F2B02DD012359
:10237000038047E693FBF1F3FAE732F83330002BA2
:102380007EF440ACFEF736BC04F101082C46DDE7D4
:102390000022474B00B21A7014F0F0FF454915F0C7
:1023A00041F80746B4F9800614F0E8FF414915F0FA
:1023B00039F80646B4F9840614F0E0FF3D4915F0FB
:1023C00031F83D490546384614F024FF07F0F1FB8B
:1023D0008146384607F0EDFB37490746304614F092
:1023E00019FF07F0E6FB8046304607F0E2FB324972
:1023F0000646284614F00EFF07F0DBFB834628460E
:1024000007F0D7FB49468246584615F00BF8494677
:102410000390504615F006F859460490384615F0DA
:1024200001F851460590384614F0FCFF41460690ED
:10243000584614F0F7FF214D5146286008F100403E
:1024400014F0F0FF05996860AE60304614F0EAFFC2
:10245000049914F0DFFE0699E860304614F0E2FFBC
:102460000146039814F0D4FE4146286107F100406C
:1024700014F0D8FF03996861304614F0D3FF014689
:10248000069814F0C5FE0499A861304614F0CAFFFE
:10249000059914F0BFFE4946E861404614F0C2FFBA
:1024A0002862FEF75DBD012176E600BF0006002030
:1024B0000E00002035FA8E3CDB0FC93F6815002066
:1024C0002DE9F04FB64A97B013780192002B00F037
:1024D000B780B44B186800286DD007F01FF8DFF8FC
:1024E000F8A2B14DDAF8000008F005F8002862D033
:1024F000DAF8000007F0FCFF0928AC4C01D03F28B7
:1025000050D14FF00008C14646462768DFF8ACB20C
:1025100008EB0B0347B13A4658F80B1028460093D6
:1025200018F088FA009B08B976B3994608F10808B4
:10253000B8F58C7FECD196B1D6F800E0D9F800C0A0
:1025400023681EF803001CF80310814207D15A1CAF
:10255000E9B97D2B1BD820202260E854A9542368B8
:102560000BB14E4508D0924813F089FF4E4511D962
:10257000904813F084FF002723689F42B2D2E85DA1
:1025800009F0DAF90137F7E71E469946CEE7E85435
:102590002260D5E756F8080B13F071FF092009F007
:1025A000CBF9E3E72368002B41F0B882042805D17A
:1025B0007D480FF0F8FC17B0BDE8F08F0C2841F013
:1025C000D0827D4813F05BFF7A4813F058FF89E70B
:1025D00001220B4601F0B4BA591E685C2028F7D0DE
:1025E00002B123600026754FEE54F159284606EBE0
:1025F00007080FF019FF38B90836B6F58C7FF4D10B
:102600006F4813F03CFF05E06E4B9845F8D2D8F8C0
:1026100004309847002301F097BA7F2B3FF662AF52
:10262000A0F12002D2B25E2A3FF65CAF13B9202897
:102630003FF458AF5A1C2260E85409F07DF951E785
:102640009846614F614D3A7802F00102009255F8C8
:102650000A3C002B41F0038208F10108B8F1030F96
:1026600005F1CC05F3D1A6E7012B05D14D280CBF10
:102670000223002301F009BA022B57D100233C2882
:1026800005F8023C4DD03E284AD015F802ECBEF1C8
:10269000060F41F0E58115F8014C002C41F0BE8198
:1026A0004FF001094A4B05AE0FCB86E80F0015F835
:1026B000053C15F803AC2B440A93BAF1440F0FFA0A
:1026C0008AF30995ADF82C30ADF82E408DF8309096
:1026D000ADF81C3001F0928100F21181BAF1050FC2
:1026E00000F0558200F2C980BAF1020F00F0938128
:1026F00000F2AB80CA4500F083813146504604F0B9
:1027000073FA0446002840F07981BAF1740F00F0A2
:10271000CA82BAF1770F00F057836FF00109D0E257
:10272000012305F8013C032301F0AFB9032B0BD1C2
:102730000023C0289FBF05F8063C05F8050C05F8E6
:10274000040C042301F0A1B9042B09D115F8043CB1
:1027500005F8030C5E4005F8046C052301F095B9FB
:10276000052B92D115F8061C15F8053C15F8042C1C
:102770008B420CD94B1C05F8063CCC23424005F893
:10278000042C144A03FB08230B4498727DE7824211
:1027900002D1062301F079B9002301F076B900BF18
:1027A000B82800206C27002034280020B4280020FE
:1027B00059C901085EC9010863C9010820C7010899
:1027C0006EC9010838C80108842E00209E0C002024
:1027D000CCAB0108940C002070270020009B002B3C
:1027E00041F03E81232824D10123019955F80A2C78
:1027F0000B708C4B8C491A608C4B8D481A609A6018
:102800009DF8002059605A7340221A73894A043394
:102810001360894B894ADB78003318BF012313709A
:1028200013F05CFE864813F02AFE4FF4006014F0AB
:102830002DF8844B93F82230B3427FF426AF824BBD
:10284000824A1A60824BDC601FE7BAF1030F00F086
:102850001B81BAF1040F7FF450AF002404227D499C
:10286000304607F067F87C4B3046197807F080F85F
:10287000059B5A1C05921C70CAE0BAF1240F00F0A7
:10288000C4811FD8BAF1200F7FF437AFDFF8E0A181
:10289000724B9AF80120D91C1A709AF80020059101
:1028A0005A709AF80220BAF808109A70304607F069
:1028B0005FF8059B9AF80520591C05911A709AF843
:1028C000062083E0BAF1280F00F0D181BAF1380F69
:1028D0007FF413AF0522614B4FF001095A700A22B1
:1028E00000249A705E4A83F800901178DC701971A8
:1028F000517892785971D91D05919A71CDE0BAF14C
:10290000810F00F0868130D8BAF1540F00F0C481F5
:1029100008D8BAF1520F7FF4F0AE504B5A1C059212
:102920001C70BAE0BAF16E0F00F03E81BAF1800F70
:102930007FF4E3AE00210A264A4B4B4C1B780B3B3D
:10294000DBB299425ADA22880598FF2AA8BFFF22F3
:1029500000F1010ECDF814E006700598013100F188
:10296000010ECDF814E00270EBE7BAF1A00F00F011
:102970003C8130D8BAF1820F7FF4BFAE3B4B30467A
:102980001A78364BDFF8F8A0591C1A70384B0591AD
:10299000198906F0EDFF374B059A1B88511CFF2B58
:1029A000A8BFFF2305911370DAF80810304681F3B1
:1029B000100189B206F0DCFFDAF80010304601F3AE
:1029C0000F0189B206F0D4FF2B4B1A78059B591CD6
:1029D00005911A7061E0BAF1B80F00F01881BAF1F0
:1029E000FE0F7FF48AAE0024DFF8989039F81410B7
:1029F0003046013406F0BCFF042CF7D1002407E078
:102A0000164BDA1C059224221C7083F801A09A70E0
:102A10004FF0010941E004221849304606F08AFFD0
:102A20003BE000BF702700203FA500082C100020CD
:102A30008EC901086C27002000200020F40F002020
:102A40005EC90108562C0020F04F0020EFBEADDE1D
:102A500000ED00E005200020C40A0020903C00208A
:102A60007020002004380020940F0020E628002069
:102A7000DE2E0020D2280020D92E002094C9010883
:102A800020210020F82000200222BE4B5A70DA1CC0
:102A90000592052283F800A09A70ADF81E90B9F156
:102AA000000F66D0059B55F80A0C0693B54B0593AD
:102AB00003681B6A03B19847059B069EF61A00231C
:102AC0000E9324238DF834304D238DF83530BDF925
:102AD0001E30FF2E3246A8BFFF22013300F091873F
:102AE0009DF82030002B14BF3C233E23FE2ECCBF8C
:102AF0004FF007094FF005098DF83630BDF81C304E
:102B00008DF837208DF838304A46C8BF33120DA9EA
:102B100055F80A0CC4BF8DF83A308DF8396007F0CB
:102B2000F0FC0DAB994400230DF13702914540F0C4
:102B30006B87002E8DF813300EDD3246059955F85F
:102B40000A0C07F0DEFC059B9DF813201E449E42F4
:102B500040F05F878DF8132055F80A0C01220DF123
:102B6000130107F0CEFC55F80A0C03685B6A03B149
:102B70009847002305F8023C002C3FF46DAD55F852
:102B80000A0C08F04DF855F80A0CA04764E50B2232
:102B90007D49304606F0CEFE08227C49304606F0DC
:102BA000C9FE07227A4938E77A4B764A1B88DFF854
:102BB0000CA2FF2BA8BFFF23511C0591DAF80810C7
:102BC000137081F3100189B2304606F0D1FE724BCA
:102BD0003046198806F0CCFEDAF8001001F30F0138
:102BE00089B2304606F0C4FE57E76C4B3046196890
:102BF00006F0AAFE6A4B3046196806F0A5FE694B3E
:102C00001968304606F0A0FE47E7674BF8E7674BC8
:102C1000F6E74FF00A0A4FF6FF7B654B654A1B78D3
:102C20000B3B5FFA83F94C45BFF6E8AE1168936839
:102C30005945A8BF59460598029321EAE171431C02
:102C4000059389B280F800A03046039206F090FE0A
:102C5000029B30460AFB03F15945A8BF594621EAB9
:102C6000E17189B206F084FE0134039ADBE70A229F
:102C7000444BDFF84CA19A70BAF800101A1D83F883
:102C8000009083F801E083F803903046059206F047
:102C90006FFEBAF80210A4E73A4A134603F8024B53
:102CA00005935470F9E6099B0A9A9A420FBF214690
:102CB0005A1C09921978404A304613F0ADFB4FF088
:102CC000010919F1020F40F04883BAF1470F099B3F
:102CD0000A9A40F0878009A8A2EB030A06F004FED6
:102CE000BAF1050F814679D909A806F013FE099BB0
:102CF0000A9A83469A4202D009A806F016FE059A5F
:102D0000069BDFF8C0A09B1A103BDAF808205B4551
:102D1000CDF808B0A2EB0902B8BF1FFA83FB9345B8
:102D20004946304688BF1FFA82FB06F00DFE3CB9CB
:102D30005946304606F01CFE059A511C0591147048
:102D4000DAF8083009EB0B029A42059E88BFA3EB24
:102D5000090B07F0FBF85A46314648460EF0CEFC08
:102D6000059B03440593002C3FF448AE0022029BD0
:102D700083427FF743AE059B0130591C05911A70C1
:102D8000F5E700BF903C002099C90108A5C90108DA
:102D9000AEC90108D2280020D42E0020E8F7FF1F7A
:102DA000ECF7FF1FF0F7FF1FCC200020581E00207B
:102DB00004380020C00F0020D1630108202100202A
:102DC0007420002014040020099B0A9A9A421DBF17
:102DD0005A1C099219782146A14A6DE701244FF047
:102DE000800B8CE7BAF1290FA2EB030437D0BAF1BC
:102DF000390F20D0BAF1210F45D15A1C09921A4639
:102E0000984C12F8021B16A8099261705A78227029
:102E1000DA1C40F8342D9B78A37006F07BFD099BEB
:102E200020815A1C09921A4612F8021B61710992FC
:102E30005B78A37124E05A1C09921A780A2A40F0A0
:102E400028869A1C09925978874A1170D91C0991D1
:102E500099785170191D0991DB78937010E05A1C14
:102E600016AC44F8342D1B7820460A2B40F0C18064
:102E700006F050FD7D4E3080204606F04BFD708000
:102E80004FF0010969E2BAF15F0F00F0078400F228
:102E90005C81BAF1370F00F03B8570D8BAF12B0F87
:102EA00000F09D8420D8BAF1230F00F0B98206D833
:102EB000BAF10B0F00F08D854FF0FF394DE2BAF1FA
:102EC000250F00F07A84BAF1270FF5D109A806F092
:102ED00021FD674C206009A806F01CFD606009A870
:102EE00006F018FDA060CBE7BAF1310F00F0348591
:102EF0001ED8BAF12D0F00F08284BAF12F0FDBD16A
:102F00005C4C04F1400609A806F004FD099BA4F8F6
:102F100080005A1C09921A4612F8021B043484F8E5
:102F20007E1009925B7884F87F30A642EBD1A7E748
:102F3000BAF1330F00F0D984BAF1350FBCD15A1C65
:102F400009921A780E2AB7D8991C09915C78032C3B
:102F5000B2D806215143484842185471DC1C0994E8
:102F60009C784454191D0991D97851701979917040
:102F70005979D170D91D9B790991137180E7BAF104
:102F8000480F00F016843AD8BAF13E0F00F00382E1
:102F900004D8BAF13C0F3FF473AF8DE7BAF1410F9B
:102FA00000F0AA84BAF1430F86D116AC5A1C44F83B
:102FB000342D1A78314B324E1A700023204633607C
:102FC00006F092FC33681843099B30605A1C099242
:102FD0001A782C4B20461A7206F09CFC244E306066
:102FE000204606F097FC7060204606F093FCB06027
:102FF000204606F08FFC204606F08CFC40E7BAF134
:10300000510F00F0B38341D8BAF14C0F00F04D845A
:10301000BAF14E0F7FF450AF5A1C09921C78112C54
:103020003FF64AAF9A1C16A840F8342D5B78164E2E
:1030300006F8143006F06EFC40F6CA039842A8BFAA
:10304000184640F2EE239842B8BF18461923A0F262
:10305000EE2090FBF3F006EB4404607010E700BF35
:103060009D610108DE2E00207020002074200020C9
:103070007C0C0020042D0020041F00208C21002047
:10308000CC200020642900202E190020BAF15B0F0B
:1030900000F0AD82BAF15D0F7FF40EAF5A1C16AC92
:1030A00044F8342D1B78C14EDFF83493204689F85C
:1030B0000530D6F800A006F02DFCAAF82000204626
:1030C000D6F800A006F026FC099A0A9BAAF81E0072
:1030D0009B1A072B17DD204606F01CFCA9F80A00F6
:1030E000204606F017FCA9F80C002046D6F800A0F0
:1030F00006F010FCAAF822002046D6F800A006F040
:1031000009FCAAF82400099A0A9B9B1A032B09DDE3
:10311000204606F0FFFBA9F80E00204606F0FAFB59
:10312000A9F81000099B0A9AD21A002A05DD591C39
:10313000099132681B7882F826300CF0E1FE0FF01E
:1031400031FF306810F0D8FF9AE6BAF1D40F00F0E2
:10315000CB816FD8BAF1CA0F00F046813DD8BAF1E1
:10316000B70F00F0C28014D8BAF1610F7FF4A4AE9B
:103170005A1C09921A468E4912F8020B0992C8701D
:1031800059788C4A5171DA1C09929A788A4BDA7014
:1031900076E6BAF1B90F00F01B83BAF1C80F7FF4DD
:1031A0008BAEC4F34704122C3FF686AE00260DF119
:1031B0003409A642C0F2D4800023804A0DA99C4263
:1031C00040F0D58000217D4A122B40F0D6804FF090
:1031D00001097B4B83F80090BFE0BAF1CE0F00F0FD
:1031E000BA8210D8BAF1CC0F00F03281BAF1CD0F0B
:1031F0007FF462AE3B78D9073FF542AE4FF4C87218
:10320000704B1A803CE6BAF1D00F00F09882BAF108
:10321000D20F7FF451AE5A1C0992187806065CD47E
:103220003B78DC073FF52CAE032828BF00200CF0CC
:10323000A5FD25E6BAF1DC0F00F0C88126D8BAF169
:10324000D90F00F0A08114D8BAF1D60F7FF434AEB4
:1032500000245D4EDFF88C9133789C42BFF610AEAF
:1032600009A806F057FB14F085F849F8240001344A
:10327000F2E7BAF1DA0F00F09481BAF1DB0F7FF4D4
:103280001BAE4A4B4E22514918684AE0BAF1EF0F83
:1032900077D015D8BAF1DD0F00F08A83BAF1DE0FCE
:1032A0007FF40AAE09A806F035FB494C208209A834
:1032B00006F030FB608209A806F02CFBA082DFE557
:1032C000BAF1F20F00F03B81BAF1FA0F7FF4F4ADDE
:1032D0003B78DB073FF5F0AD37E200F07F000328D5
:1032E00028BF002012F046FFCAE55A1C09921A4670
:1032F00012F8029B0992DA1C587809929978B9F170
:10330000000F11D101283FF6BBAD01293FF6B8AD42
:1033100081423FF4B5AD4E222E4B02FB013102FB40
:10332000003014F013FFABE5B9F1010F7FF4A8AD45
:1033300001283FF6A5AD01293FF6A2AD81423FF439
:103340009FAD0C23244A584303FB01210B688418CA
:1033500083504B6863608B68A3600024FFF79DBBBC
:1033600009A806F0D7FA29F81600013621E731F846
:10337000130022F81300013321E722F81310013360
:1033800022E709A806F0C6FA094CE08109A806F070
:10339000C1FAA08174E55A1C09921A460F4912F825
:1033A000020B887009925B784B7069E5A0200020C1
:1033B000AA2000202A300020BA2000203E18002039
:1033C0003C1800202022002004380020D0C601082C
:1033D000E8370020EA3200207A200020C6200020B2
:1033E000A22900204C270020A04B1868034600F1BA
:1033F0001E04099A0333511C0991114611F8026BFE
:1034000003F8036C0991517803F8021CD11C09914F
:10341000927803F8012C9C42EBD110F09DFD2FE532
:103420005A1C0992197813293FF646AD9A1C099245
:103430000C2600225C78DFF85CE206FB02E090F8E4
:1034400008C0A44500F030830132252AF5D133E5C8
:10345000092C7FF731AD5A1C09921A46844E12F896
:10346000021B34682170099200225B78601DA370F2
:10347000022A14BF4FF0640E4FF0FF0E099B013279
:10348000591C099119787145A8BF7146032A00F8A3
:10349000011BEDD19A1C09925A7816A8642AA8BF7C
:1034A00064222272DA1C09929A78E2701A1D40F89E
:1034B000342DDB78237106F02DFA0A9B099A60817E
:1034C000991A002904DD501C0990316812784A725B
:1034D000099A9B1A002B04DD511C0991336812785C
:1034E0005A7013F08BF8CBE40D2C7FF4E5AC5A1C2A
:1034F00009921C78072C3FF6DFAC0C2609A806F0D1
:1035000009FA6643DFF8909109EB0604A08009A848
:1035100006F000FAE08009A806F0FCF9099B20817A
:103520005A1C09921A4612F8021B09A8A1720992A4
:103530005B78E37206F0D8F949F80600A0E45A1C5B
:1035400009921A780F2A3FF6B7AC991C09915C785A
:103550004848C2EBC20142184454D91C09919978D9
:103560005170191D0991D97891701979D1705979D3
:1035700011719979517103F10801DB790991937106
:103580000AF0E8FF7CE409A806F0C4F93A4C208070
:1035900009A806F0BFF9608009A806F0BBF9A08071
:1035A0006EE419465A1C099211F8020B334A09912C
:1035B00059781070517016A8D91C40F8341D9B78AA
:1035C000937006F0A7F92C4BD88059E45A1C099245
:1035D0001A4612F8020B2A4909920870294A5978AA
:1035E0009170DA1C09929A78274B9A7048E45A1C19
:1035F00009921A46224C12F8021B244E0992A1701D
:103600005978234A0DF158091170DA1C09929A78F9
:1036100032711A1D49F8342DDB784846042BA8BFB7
:103620000423B37006F076F9099A0A9B30809B1A3E
:10363000012B03DD484606F06DF9F081099B0A9ADB
:103640009A4206D05A1C09921B78003318BF0123F6
:10365000E3710CF055FC099B0A9A9A423FF410ACB6
:103660005A1C09921B78F3700AE400BFA0200020C6
:103670006C3C0020CA190020643C0020A4200020DB
:10368000A2290020AA200020BA200020E83700202C
:103690007820002050AF01083C1A002009A806F04D
:1036A00039F909A806F036F909A806F033F909A88E
:1036B00006F03BF9099BB24C591C09911946226846
:1036C00011F8020B82F82C000991597809A882F8A8
:1036D0003610D91C09919B7882F8373006F025F90D
:1036E00009A806F022F909A806F01FF909A826681A
:1036F00006F010F9708709A8266806F00BF9099BF7
:103700000A9A3087D21A012A08DD591C09912268C9
:103710001B7809A882F82E3006F007F9099A0A9B4F
:103720009B1A032B09DD09A8266806F0F3F87086BA
:1037300009A8266806F0EEF8B08620686DE63B78AA
:10374000D8073FF59DAB0CF04BFE0CF02DFB0CF0B9
:1037500069FCFFF795BB3B78DA073FF591AB894AE7
:10376000137843F004031370FFF78ABB8649097886
:1037700001293FF685AB591C09911946834C11F874
:10378000020BA070D81C0991121A5978012A0990CD
:103790009E7805DD09A806F0BDF82080FFF770BB14
:1037A0007B4BB3F900304B4393FBF6F32380FFF7D9
:1037B00067BB0EF0C3F8FFF763BB0023754C09A885
:1037C000236006F091F8236818432060FFF758BB88
:1037D0000023714C09A8236006F086F8F5E7581C11
:1037E00009901C786D49121A002A0C707FF748ABBB
:1037F0009A1C09925B78003318BF0123D4E55A1C48
:1038000016AC44F8342D1B78654E2046337206F012
:1038100081F8B083204606F07DF83083204606F01C
:1038200079F8099B70835A1C09921B78F3740A9BE0
:103830009B1A032B07DD204606F06CF8B084204667
:1038400006F068F8F084099B0A9AD21A032A0DDD63
:103850005A1C09921A4612F8021B2046B1770992A7
:103860005B7886F8203006F055F87084099B0A9A38
:10387000D21A052A0CDD5A1C09921B782046F372D5
:1038800006F032F8099BF0605A1C09921B783374D9
:10389000099B0A9AD21A002A7FF7F2AA5A1C0992A7
:1038A0001B7886F82130FFF7EBBA5A1C09921A46AA
:1038B0003C4C12F8021B16AE46F8342D21715B7891
:1038C0003046637106F026F8099B20805A1C099245
:1038D0001B783046A37106F01DF8099B60805A1CC6
:1038E00009921B78E371FFF7CBBA5A1C09921A7838
:1038F0002B4B5A75FFF7C4BA00232949099A501C6B
:10390000099012785A540133082BF7D1FFF7B8BA4F
:103910000726B4FBF6F6C6EBC603E41A7FF4CCAA7E
:10392000DFF888B0F6B2E3B2B3423FF4A9AA4FF091
:10393000000A099B5A1C099293F900300BEBCA0943
:1039400099F902209A4200F0CA800AF1010ABAF1FC
:10395000040FF3D1FFF7B0BA5A1C09921E781F2E3C
:103960003FF6AAAA052C7FF4A7AA09A805F0BCFF78
:103970000D4B43F8260011F03DF9FFF781BA00BF67
:10398000A020002065150020D63700202837002011
:10399000C4370020CC200020581E00208C2100209D
:1039A00064290020F0310020042D0020562C002036
:1039B0005A1C09921A4612F8020B0992DA1C59781D
:1039C00009929A7810F056FA00287FF459AAFFF766
:1039D00073BA002111226A4816F0E9FF102C4FF04B
:1039E000000328BF10246649A342BFF449AA099ADC
:1039F000501C099012785A540133F5E7614CFFF7D7
:103A00004CB82123FFF772B812F8011B4B40FFF7A7
:103A10008DB813F8011B4A40FFF799B8012C1BD150
:103A2000102200210DA816F0C2FF15F8053C0D95D7
:103A30002B440E9315F8033C6E2BADF83C300BD1A4
:103A40000DA805F072FF0DA805F064FF0DA805F0A4
:103A500061FF0DA805F05EFF0024FFF78AB84A4C0D
:103A600055F80A0C06F047FD00283EF4F5AD55F870
:103A70000A0C06F03DFD15F8023C0646002B7EF4CC
:103A8000F3AD24287EF4AAAE012305F8023CFEF72C
:103A9000FCBD09A805F049FF09A805F046FF09A8E3
:103AA00005F043FFFFF7ECB9384A007802F821002F
:103AB000D81C0990987802EB81011A1D4870099270
:103AC000DA7800208A705A1D1B790992CB7012F0A7
:103AD0000BFD2F4B80F001001870FFF7D1B989F86A
:103AE000023009A805F016FF099B2BF83A005A1C72
:103AF00009921A4612F8021B0134099289F8031040
:103B00005A7889F80420DA1C09929A7889F80620F4
:103B10001A1D0992DB7889F8053004E70C283EF479
:103B200050AD0A2801D00D2820D112F0C1FC23216C
:103B3000284616F071FF08B1401B20600022236860
:103B4000002B7EF449AD02B123608022002128467B
:103B500016F02DFF019B1B78002B7EF435ADFEF790
:103B60002ABD7F287EF45CADFEF7BCBC7F287EF4C6
:103B700054AD0022013B2360EA540648FEF725BD00
:103B800014200020CBFC00080400FA05641E00206D
:103B9000000000208AC901082DE9F04FB24B9DB00A
:103BA0001B780790012B07D1B049B14A0968C96950
:103BB0001180B04909885180AF4D2A78002A00F061
:103BC0000F85072B40F0008206F0C8FB0690AB4F34
:103BD0003B68089713F4806F05D0A948836813B138
:103BE00000F150019847A74BA7491B68B1F906405F
:103BF0005A890991944280F2EA814FF07E536B60BA
:103C0000A24B4FF0000893F90410A14A002914BFF9
:103C100001214FF0FF31168B93F801A093F800902B
:103C20009C4F05910A92099B33F918B0ABEB060043
:103C30000028B8BF4042B0F5FA7FA8BF4FF4FA7031
:103C4000B8F1020F00F0D6814845CCBFA0EB0900C7
:103C5000002013F093FBB34547F82800C0F2D88149
:103C600008F10108B8F1030FDDD1089B1F6817F4B4
:103C7000805800F0D481B4F5FA6F2346A8BF4FF402
:103C8000FA63B3F57A7FB8BF4FF47A73A3F57A730A
:103C90002A7A22B16A7A5343642293FBF2F34FF0FB
:103CA000640E93FBFEF27C4802F1010C30F9121015
:103CB00030F91C006FF0630C0CFB0233401A5843C0
:103CC00090FBFEF0084400B213F058FBDFF8C491FB
:103CD0008246C9F80C00B8F1000F1DD01D2012F06B
:103CE0003DFCC8B16D4BDB78B3B96D49504613F05C
:103CF0008FFA13F073FD4FF47A7300B2000390FB58
:103D0000F3F3C6F5FA6000B2584340F30F30304485
:103D100013F034FBC9F80C00624B1E8873063BD5C8
:103D2000614BB3F904000A2390FBF3F02B8AC01A0D
:103D300000B213F023FB5D4913F074FB5C490546A8
:103D400013F068FA05F035FF8346284605F031FF89
:103D5000504D81462B6859461846089313F062FB74
:103D6000D5F804A005905146484613F05BFB059A30
:103D70000146104613F04CFA59462860504613F09D
:103D800051FB089B82461946484613F04BFB0146FF
:103D9000504613F03FFA6860464B374D1B6813F0EE
:103DA000140F1AD016F4027F17D0434BDFF8E490BB
:103DB0001A7812F0100200F04781AB7C6869002B82
:103DC0000CBF01234FF0FF33584313F0D7FAD9F853
:103DD000041013F01FFAC9F80400384BDFF8B0A044
:103DE0001A789946A2B1BAF81A30A34210DB344BC4
:103DF0001B78012B01D0192B02D1324A927B3AB9A0
:103E00000E2B05D0082B1FBF0023224AEB639360C3
:103E100095F84240002C68D0B60766D02A4B2B4953
:103E20001E6A304613F0A6FC002840F06081304640
:103E300014F06AFB696C13F0F5FA14F0EDFAB0F5C2
:103E4000617FA8BF4FF4617013F098FA204913F016
:103E5000E9FA05F0AEFE0646204613F08FFA314629
:103E600013F0E0FA36E000BF842100204C29002046
:103E7000F8200020301C0020801000209029002015
:103E8000B82900206C3C0020AC2E0020A42000208B
:103E900064290020E8280020703C0020F02E00203B
:103EA00000007A44D62E0020C431002035FA8E3C22
:103EB000DB0FC93F8821002065150020000000208D
:103EC0008C210020B81A0020843100208FC2753C5C
:103ED000D06D393A14F0A0FA00B213F04FFA894CC1
:103EE0000146E06813F096F9E06095F84860002E0E
:103EF0005CD0854B0420D3F8EC4044F620639C4210
:103F0000A8BF1C46B4F57A7FB8BF4FF47A74A4B248
:103F1000A5F84A4012F022FB08B9F80046D54FF444
:103F20007A73B4FBF3F4642393FBF4F4DFF8ECB19D
:103F3000142CA8BF1424DBF80030B8F1000F00F0F7
:103F4000D8805F8E7F086F49EB6CD1F80C805A1CCB
:103F5000EA6405EB430340460892059313F03EFCE8
:103F6000089A059BA242A3F85000A4BF0023EB646B
:103F7000EB6C05EB4303B3F9500013F0FFF9014676
:103F8000404613F045F913F029FC00B20028B8BFF1
:103F90004042B84240F3B080DBF80030988E13F016
:103FA000EDF95A4913F03EFAC9F804009AF81E4098
:103FB000002C00F0DC81022C00F0B280032C00F019
:103FC000AF81534B5888B0E000230693FFE5B4F56A
:103FD000FA6F187ABFBFA31A5843C2F5FA6290FB72
:103FE000F2F0C0F1640013F0C9F94A4913F01AFA6B
:103FF000686005E65045D8BF0020059BC8BFA0EB10
:104000000A00584313F0BAF9B345B860BFF62DAEB5
:1040100057F8281001F1004147F8281020E60A9BC4
:104020005A8B94420EDBB4F5FA6F2346A8BF4FF4C7
:10403000FA634FF47A719B1A4B43C2F5FA62B3FBF1
:10404000F2F325E61346F4E7334BD978987871B349
:10405000B5F91830E11A0029B8BF4942814210DD94
:10406000EA6101229C4285F82020C8BF404213F03B
:1040700085F90146D9F80C0013F0CCF8C9F80C000A
:10408000ABE695F8201019B1A96A85F8202069627D
:1040900068691844B0F5FA6FA8BF4FF4FA60B0F53C
:1040A0007A7FB8BF4FF47A7013F068F9E6E7B5F994
:1040B0001820A31A83EAE37EAEEBE37E86450BDD90
:1040C000022193FBF1F3EB62012385F8303085F890
:1040D000203068691044DDE795F82030002BF8D0D7
:1040E000AB6A85F830106B6285F82010F1E700208C
:1040F000F2E6B3F9327026E74FF07E53C9F8043088
:1041000054E700BFE8280020000100206F12833A26
:10411000542900200AD7233CA4200020A0200020FE
:10412000B5F84A0000F57A7080B29AF81F40023460
:10413000E4B2002E00F00981002800F00681904BC7
:1041400000261B688F4FB0FBF3F000B2A5F8780093
:1041500013F014F901464FF07E5013F017FA804621
:10416000DFF8289207F1100AA642C0F2E180864BE0
:104170001B78092B11D1854B854E186814F04CF92A
:10418000844B3080D3F8EC004FF47A7390FBF3F05B
:1041900013F0F4F813F022FB7080B5F97830002B9F
:1041A00040F3E88000267C4FDFF8E091A7F110088B
:1041B000F3B29C4200F2CF8095F848300893002B70
:1041C00040F0DA80002C00F08B80022CA8BF022483
:1041D000099400244FF07E59704BDFF8F0811F687E
:1041E000694B1B780A937B1D0B93099B9C4240F300
:1041F000EF800A9B092B08D1694B654CB3F87820F6
:10420000586BA28013F0EAFAE080664B93F82140E5
:10421000002C5FD01E2012F0A1F900285AD0624B6A
:104220001B88590656D45E4F604E97F8B430A342AF
:1042300013D087F8B440204613F0A0F85C4913F07F
:10424000F1F85C49044612F0E5FF05F0B2FCB060FD
:10425000204605F0AEFCC7F8B800D6F808806C6BB5
:104260004146204613F0DEF8EF6BD5F8B860814682
:104270003146384613F0D6F80146484612F0C8FFDA
:104280004D49814613F076FA08B9DFF82C914B4975
:10429000484613F079FA08B9DFF8209141463846CC
:1042A000C5F8349013F0BEF831460746204613F0A7
:1042B000B9F80146384612F0ADFF3F49044613F005
:1042C00059FA00B93C4C3D49204613F05DFA00B95B
:1042D0003A4CEC63089B1BB10022314B83F8482019
:1042E000374B1B78002B40F06E81364EB278002A97
:1042F00000F06981344C2378013B0D2B00F2518191
:10430000DFE813F006011A01400134024F014F01AA
:104310004E02620274029002A102E502EF02F8026C
:104320009AF82000C0EB401300EB8300C000FBE6CE
:104330005AF8261059F8260012F06AFF414613F089
:1043400071F847F8260001360EE7B5F87830013BE2
:10435000A5F8783021E757F8260058F8261012F013
:1043600059FF47F8260049F82600013620E7A5F84E
:10437000784021E700241FE70223099329E700BFC3
:104380006C210020FC10002084210020E82800205F
:10439000F8200020000100200C1100206C3C0020BF
:1043A0008010002064290020D62E0020000000206C
:1043B00035FA8E3CDB0FC93F00C0F94400C0F9C498
:1043C000B828002028370020D63700200AD7233C01
:1043D000022C15BF3878787897F802B097F809B0B2
:1043E00012F0CCFF414613F01DF84FF08041064615
:1043F00013F0D4F960B14FF08041304612F008FF5D
:10440000524913F00FF80146304612F003FF0646FA
:10441000A30005934E4B4F4953F8240013F002F8C4
:1044200020F000434C4A0593059B42F824000C32CF
:10443000824642F82430BBF1000F1FD0584612F0DC
:104440009DFF414612F0EEFF83465146504612F062
:10445000E9FF059912F0E6FF594612F0E3FF5946CD
:104460000C90484612F0D4FE0C9A0146104612F009
:10447000D1FE0146504612F0D5FF824637493046FC
:1044800012F0D0FF514612F0CDFF0B9B064613F8F9
:10449000010B0B93F0B112F071FF414612F0C2FF15
:1044A000059912F0BFFF2E49824613F077F958BBE9
:1044B0000021504613F054F940BB5146484612F0D3
:1044C000A7FE0146484613F061F80146304612F057
:1044D000A9FF06460A9B0C2B05D1304613F07EF946
:1044E000204B23F814002049304613F043F900B95B
:1044F0001D4E1E49304613F047F900B91B4E1C4BA8
:10450000A200D650013470E64146DBE74946D9E7C0
:10451000184B1B78DA0707D580200EF091FE08B102
:1045200006F0BAFB13F092FC1F2012F017F80028D7
:1045300037D00C23237034E000220F4B1A600F4B4E
:104540001A600F4A12685A600323F3E7D7A3684141
:10455000E82800206F12033B1C1100200000484394
:10456000A4707D3FF820002000C0F94400C0F9C4C9
:10457000B4100020842E0020243700200C200020BE
:104580002429002010F0E0FCBB4DBC4B1A686B687E
:104590006433934205D2402010F0AEFC002800F0B6
:1045A000C18010F0F9FC002800F0AB8123780C3BAF
:1045B000022B08D901232370B14B93F8BC2012B110
:1045C000002283F8BC20AF4B1B78072B05D105F0E8
:1045D000C5FE069BC01AAC4B98800022A84B1A70EF
:1045E000A84E3378072B40F0D88105F0B7FE08902D
:1045F000DFF8C492D9F80430484698474C46002862
:1046000078D00022B9F8B4B089F855209F4DBBF19D
:10461000000F40F02682D9F82420B9F93C30984E9A
:104620009B1AC9F83030D9F82820B9F93E3009F181
:1046300030009B1AC9F83430D9F82C20B9F9403031
:1046400099F856109B1AC9F8383008F0DDFB079B23
:10465000D6F8C400C6F8C430181AD6F8C8300344D7
:10466000C6F8C8308A4B93F80080B8F1000F40F0CC
:10467000978112F083FE4FF07C5112F0D3FE8346F7
:1046800009F12C0A09F59C77C14606F1CC08D83609
:104690005AF8040F12F072FE216A12F0C3FED4F829
:1046A0003431014638469847D4F8A431014607F121
:1046B00070009847D4F8B8300146DAF8F800984707
:1046C00056F8291045F8040F059012F0A3FD59463D
:1046D00012F0A8FE58F8291012F09CFD059B48F82E
:1046E000290046F8293009F10109B9F1030F07F152
:1046F0002407CDD1634C2278072A05D105F02EFE80
:10470000089BC01A604B18805D4B93F8E5201D464E
:104710000692002A00F08E82013A83F8E5201DB04F
:10472000BDE8F08FDFF894814027C246DFF8909112
:104730002B6818F8030068B110F0ACFCD9F8003011
:10474000013F03F1FF33C9F800302B6803F1010387
:104750002B60EDD12B681AF80330002B7FF421AFCA
:104760002B604FF0FF336B600423E3E610F0ECFBAB
:10477000484A5021A2F10C03019326230292009390
:104780004920A2F10A03163A0BF0FAF800287FF448
:1047900008AF4FF0FF32384B18605A600723C9E664
:1047A00010F0D2FB0523002100933B4B02910191B5
:1047B000A3F1080253200BF0E3F800287FF4F1AED8
:1047C0002D4B18600823B5E610F0BEFB0AF07CFD07
:1047D00000283FF4E6AE13F07FFC00283FF4E1AE82
:1047E0002E4B1A682E4B1A600A23A3E61A2011F0EA
:1047F000B5FEA0B12B4B1B888BB92B4B14A91B68A2
:104800000E201493079B159310F094FD234B1A6808
:10481000234B1A600A232370079810F0D7FD10F07D
:1048200065FDBEE6214B1B78002BF5D01A2011F058
:1048300095FE0028F0D1124B93F8BC30002BEBD141
:1048400009232370EBE70D4B1A680B4B5B68C833E9
:10485000934237D2B378032B0BD1154D286806F05D
:1048600005FA00232B60134B1B78022B01D106F0B5
:1048700001FC01235EE600BF0C200020242900205B
:104880008010002084210020F8200020442C0020EB
:10489000FC15002042AC0108FCAD010808220020F4
:1048A000C8370020D0370020CC3700208E210020D0
:1048B0003037002068210020B8290020DCAB010837
:1048C0002437002013F008FC0028C3D169E6012A30
:1048D00001D10DF033F80D231320237006F042FCB4
:1048E0005FE6012A04D10CF0D1FE00283FF459AE56
:1048F0000E23F1E71F2011F031FE00287FF451AEA6
:10490000B7E7F378002B3FF45EAEA04B1D7815F0AF
:10491000010508D19E4BDFF8A0921F789D4BD3F87C
:104920000080BD4219DB9C4B9C4D1B68D5F8C02014
:104930009A4223D92378012B7FF445AE974C94F803
:10494000BC20002A7FF43FAEB378032B0FD013F0C6
:104950007DFA012384F8BC3035E6414659F825003C
:1049600012F0F4FE002801F0A0820135D9E7802082
:104970000EF066FC00287FF426AEE8E72378012BD2
:104980003FF421AE95F8BC30002B3FF41CAE0BF089
:1049900031F9002385F8BC3015E60023089327E69B
:1049A00012F0ECFC4FF07C5112F03CFD4C465E46A0
:1049B0007B4FDFF8F0B1059009F12C0A09F59C78DE
:1049C0009BF800905AF8040FB9F1170F02BFA31912
:1049D0009B8F3B8012F0D2FC216A12F023FDB9F1CB
:1049E000080F014604D1069013F016FD0699388091
:1049F000D4F8343140469847D4F8A431014608F140
:104A000070009847674B81461B78032B02D113F047
:104A100003FD38804946D4F8B830DAF8F8009847F2
:104A2000DFF8989145F8040F09F10C0353F81610BC
:104A30000693099012F0EEFB059912F0F3FC59F879
:104A4000161012F0E7FB069B099A49F8160043F886
:104A500016200236062E08F1240807F10207AFD10E
:104A600048E6514B29685B784C4609934FF47A73BA
:104A7000B3FBF1F31546C3EB431103EB8103DB00FA
:104A80009BB20593337806920A93454B09F12406AD
:104A9000B3F90680059B5B080B93059B9B4501BF03
:104AA0000023B364C4F888303360404BEB18B3F98B
:104AB0003C00B36C0344B36412F060FCD4F888206B
:104AC000571C012FC4F8887009D10023BBF1010FD6
:104AD000E067A067C4F8803079D1002033E0D4F8D3
:104AE00078900D9249460C9012F092FB824638461F
:104AF00012F044FC0146504612F048FD494612F0BF
:104B000089FB0C9B01468146E067184612F080FB4A
:104B1000514612F087FCD4F8801012F07BFBBBF1F9
:104B2000010F8246C4F88400C4F87890C4F880006D
:104B30000D9A4CD1012FD0DD104612F01FFC01461A
:104B4000504612F023FD13F027FF0A9B0746032B64
:104B500005D113F061FC01230FFA80F80693099B3D
:104B600073B3184612F00AFC394612F0F9FD38B357
:104B7000069B13B10A4BA3F806800D4808F034F9E0
:104B800000220C4B5A609A60DA60B3E5842E002054
:104B900004380020BC280020242900208010002098
:104BA000F820002084210020A2290020B82900201C
:104BB0006C2A0020442C00204C2700204C1100209F
:104BC0000B9AB36C1344059A93FBF2F333600235EE
:104BD000062D06F1040604F114047FF45EAF069B73
:104BE00013B10F4BA3F80680BBF1010F11D10022C6
:104BF0000C4B1B689A621A63DA620B4B93F8E43031
:104C000023B10A4B1B8823F4806313B9012006F0FB
:104C1000A9FA074AB2F8B430013BA2F8B430AFE7C2
:104C2000F82000204C29002080100020142F0020A4
:104C3000B8290020AC4B5B79002B00F07085AB4BA2
:104C40001B78013BDBB285F8E5302378072B40F079
:104C5000698505F083FB0C90A54B4FF07E501B68D7
:104C600009936B680F93D5F8E83019460B9312F04F
:104C7000CFFAA04B196812F0D5FB4FF07E510D9082
:104C800012F078FD10B94FF07E530D939A4B00252A
:104C900008939A4B9A4C0A9300230593059BDFF8DF
:104CA000BC929E0059F82370059A964B294653F8FA
:104CB0002280404612F04AFDE8B9059B09F1B80987
:104CC00059F823903846494612F0A2FA824620F05D
:104CD0000041404612F044FD58B12946504612F0BA
:104CE0005DFD002800F022854946404612F092FA08
:104CF0000746854BF750854BB3F8009019F0030F2A
:104D00003BD0059B022B38D0099B93F82EB0584618
:104D100012F034FB7E4BF15812F084FB8246CBF14B
:104D2000000012F02BFB80460146504612F018FDA1
:104D300040B9584612F01EFB5146804612F01AFD4B
:104D400000B9D046059A734B33F912000A9BB3F9A8
:104D50000030C01A12F012FB6F4912F063FB0146DB
:104D6000404612F055FA19F0010F0E9000F0E4845D
:104D70006A4B196812F056FB0746694B38463344B4
:104D8000D3F804B0594612F043FA94F8F83080464C
:104D9000002B76D0079AD4F8FC30D31A614A1268F7
:104DA00093426EDD099B93F84830022B02D101201B
:104DB00005F030FC059B022B40F098855A4B40468D
:104DC000D3F8009009F1004A514612F0C9FC0028BE
:104DD00040F0AC854946404612F0CCFC00B9C846CC
:104DE000089B079A1D60D4F8FC30D31A4F4A12680A
:104DF000934223DC4FF07E510B9812F0B1FC002857
:104E00003FD04B4BDFF818A1D3F80090DAF804003C
:104E1000494620F0004012F0A3FC90B3DAF80810E5
:104E2000484621F0004112F0B9FC50B3DAF80C10FA
:104E3000484621F0004112F0B1FC10B33D4B186818
:104E400010F0020019D03C4B32483C491A68B1F9C5
:104E50000CE0B0F90030A3EB0E03002BB8BF5B42AF
:104E600093420EDAB0F90230B1F90E105B1A002B42
:104E7000B8BF5B429A4204DD002084F8F80005F0D8
:104E8000C9FB2F4B0F98F15812F0CCFA414612F0A3
:104E9000C9FA059BDFF8C890022B014646F80900C5
:104EA00006D1284A284B10681B689847C9F80800A3
:104EB000089B1B680E93254B5968254B186812F008
:104EC000B1FA0D9912F0AEFA224BF15812F0AAFA8B
:104ED000414612F0A7FA0E9912F09CF91E4B109061
:104EE000D3F800A03EE000BFA229002078200020D7
:104EF000A020002088300020E0200020B6200020E4
:104F0000801000207C3000206C110020D62E002064
:104F10001C110020C4310020CDCCCC3D64300020D9
:104F2000442C002090300020A83000208C3000203D
:104F3000983000208821002094300020AA200020F2
:104F4000383000205C310020B83000200000002004
:104F50009C1A002044300020AC300020B410002007
:104F6000D42000200AF10049494612F0F9FB38B973
:104F7000109A51461046914612F0FCFB00B9D146FA
:104F8000059B022B40F0D58494F80031012B02D010
:104F9000192B40F0CE844FF00103A64940461093F0
:104FA00012F0FCFB109B00B90346DBB23BB10E9B39
:104FB00029F0004023F0004112F0D2FB10B1089B11
:104FC000C3F80090059B022B00F099809A4A9B4BF6
:104FD00059461B68B0589847994A9A4B01461B6836
:104FE000B0589847099B814693F83730002B00F062
:104FF000AB84954B1B88002B40F0A684934BF15853
:10500000934B186812F00EFA4FF07E51824612F060
:10501000B1FB08B94FF07E5A8E4B5046196812F01A
:1050200001FA0146384612F0FDF9494612F0F0F84F
:10503000894B8146F15812F0EBF8884B196812F051
:10504000A5FA854B074646F80390099B93F848302C
:10505000002B4AD0824B1B78D80740F178844FF060
:105060007E510B9812F090FBF8B194F8F830E3B948
:105070007C4B27F00040196812F090FBA8B17A4BE6
:1050800028F00040196812F089FB70B1774BF05896
:10509000774B20F00040196812F062FB28B1012321
:1050A00084F8F830079BC4F8FC3094F8F830E3B18A
:1050B000079AD4F8FC30D31A6E4A1268934214DA75
:1050C000694B28F00040196812F04AFB40B9674B61
:1050D000F058674B20F00040196812F05FFB20B1D8
:1050E000002084F8F80005F095FA634B0F98F1580A
:1050F00012F098F9394612F095F9604B985194F8EE
:105100000C312BB95E4BF550089B1D605B4BF55085
:10511000059B01330593089B043308930A9B0233D4
:105120000A93059B032B7FF4B9AD564E3278072ABC
:1051300005D105F013F90C9BC01A534B58803378F6
:10514000012B40F00B8405F009F95049D4F81031D7
:105150004D4A0968C31A93805B1A0790D380C4F83C
:1051600010014B4B4B4E1B6893F82C704A4B1B683D
:1051700013F4805F00F05384394BB4F816811B7828
:105180004046D90758BF454BF6685CBF1B8BA4F857
:10519000143112F0F3F881460146304612F0EAFA73
:1051A000002800F0E6833E4BD4F81C111868C4F8C0
:1051B0002011C4F82411C4F8180112F029F8FF23B3
:1051C000C4F8280184F82C31304612F02DFB31460A
:1051D000A4F81401484612F01BF8C4F83001D4F8C2
:1051E00034512946D4F8300112F0D0F94FF07E51F5
:1051F000054612F0BFFA08B94FF07E550021284647
:1052000012F0C2FA00B90025DFF87490DFF898A018
:10521000C4F83051DAF80010D9F8000011F0FAFFA4
:10522000164B196811F0F6FF1E49099012F0FAF8B2
:105230003CE000BF00009642BC300020B0300020AF
:105240000C310020B4300020D62E00202811002080
:10525000603000205C300020841100209C1A002067
:10526000842E0020A03000209C300020B4100020AC
:10527000A43000209030002050300020EC2000208E
:10528000D420002084210020F82000206C21002060
:10529000A0200020E8280020902900206429002078
:1052A000003800206F12833AE0200020B04B804687
:1052B0001C6804F10046314612F052FA002840F012
:1052C000CD832146404612F055FA00B9A046DAF8DF
:1052D0000410D9F8040011F09DFFA64B596811F095
:1052E00099FFA5490A9012F09DF881460146304683
:1052F00012F054FA30B949462046264612F03AFADE
:1053000000B94E469D4B99689D4B986811F082FFFD
:1053100099490B9012F086F89A4B8246D3F8009088
:1053200009F10044214612F01BFA30B949465046B3
:10533000544612F01FFA00B94C46934B5B780BB9F8
:1053400004F100442FB3914B5A7912B3904A177865
:10535000FFB1187812F00EF88146384612F00EF8B8
:105360000146484612F05EF88A4B0746188812F04C
:1053700001F80146384612F009F98749074612F04C
:10538000F9F900B9844F4FF07E51384612F0FCF91C
:1053900008B94FF07E574FF0000A804BD3461B7878
:1053A000DFF8409208930023089A9342C0F2588392
:1053B0005146584611F02CFF794C4FF07E51C4F8FD
:1053C000E800064612F0EAF9002800F08983314629
:1053D0004FF07E5012F0DAF80025074614AE089B15
:1053E000AB4200F3748311F0BFF818B14FF07C5357
:1053F000C4F8303194F92C0111F0C0FFD4F83031E9
:105400000C900D93D4F82831D4F818010E93D4F8E9
:10541000243100250F93634BDB78119312F0DEF9F2
:105420008146D4F8200112F0D9F95F4B8246D3F8B7
:1054300000B0584612F0D2F980465C4B1E6806F068
:10544000100312935A4B06F480561C78594B04F003
:105450000104B3F90670584B5B8B1093089B9D4277
:10546000C0F061832CB9554B554A0899A14200F30D
:1054700098834B4BD3F8C821002A00F0B68493F8E8
:105480000031192B00F2D78001229A404D4B134076
:10549000002B00F0D0804C4B474C1B8813F4807FCE
:1054A00000F09883494D286812F098F9ADF8500043
:1054B000686812F093F9ADF85200A86812F08EF9FE
:1054C000ADF854004FF47A724FF461614048B0F97E
:1054D000023003F5E163534393FBF1F3A3F5FA7351
:1054E000ADF86830B0F9003003F5E1635A4392FB40
:1054F000F1F2324BA2F5FA7236491868ADF86A201B
:1055000011F086FE12F06AF92A4A238B1188ADF851
:105510005600C91AADF858105188C91AADF85A107A
:105520009188C91AADF85C10D188C91AADF85E101F
:105530001189C91AADF860105189C91AADF8621005
:105540009189D289C91AD31AADF866300023ADF813
:1055500064101946204A22F813100133082BFAD19F
:105560004FF00C0964271D4B1D4C1B783CE000BF1D
:10557000A01A0020EC2000206F12833AE0200020C7
:10558000D4200020A41A00208C210020DE2E002030
:10559000E6280020D2280020713DAA3F04380020D0
:1055A00080100020F02E0020BC2800209029002030
:1055B000842E0020AC2E0020642900200021002031
:1055C0004C27002032413003D62E0020E82800204E
:1055D000C43100200080BB4458210020591900200C
:1055E0005A190020C8110020AE4DC3EBC303234459
:1055F000DFF8BC82DFF8BCA20A930A9BA34240F00A
:105600000B8300254FF00C096427A74EDFF8A0821A
:1056100009FB0583B6F9024093F90A00444394FB61
:10562000F7F4E8B2748008F0BDFF01352044082D7E
:1056300026F8020FECD19D4C9D4D236813F0200FEE
:1056400030D0002008F0AEFF9A4E80463080012016
:1056500008F0A8FF07467080082010F07FFF08B30D
:10566000954B95F90A1093F8EE31012B934B40F0CE
:105670004583484295F91620B3F90210B3F900307A
:105680004143534332206FF0310291FBF0F193FB21
:10569000F2F293FBF0F00A44A8EB020232800844D5
:1056A00038447080DFF8009200234A46EE18B6F9BD
:1056B0000410B2F90200B6F90660884203DB8642A4
:1056C0003146A8BF01460C33602B22F8021FEDD1F2
:1056D0007B4EB389002B40F02183774F97F8003140
:1056E000013B182B00F24A83DFE813F03A0348032A
:1056F0004803AC034803480348039903480348039D
:10570000480348034803B8034803480348034803D1
:105710004803AC03C90348034803B8033A03012311
:10572000FFF791BA00230C93FFF796BA414648461B
:1057300011F06EFDFFF7DCBAD4F8A890D4F8AC8075
:105740004946404612F020F800B9C8465B4BB3F911
:105750000000B3F902300028B8BF4042002BB8BFA8
:105760005B429842B8BF184611F008FE554911F047
:1057700059FE554B82461B78002B57D0534B294678
:10578000D3F800B0584612F009F8002800F08780DE
:105790004F4B2946D3F80090484611F0FFFF0028F0
:1057A0007DD008F100404B4911F03CFE594611F004
:1057B000EDFE4FF07E5111F02DFD514680464846DA
:1057C00011F026FD494611F0E1FE4FF07E51814671
:1057D00011F0D0FF08B94FF07E592946484611F024
:1057E000D3FF00B9A9464146484611F01BFE814649
:1057F000394B0E98196811F015FE4FF07E51804616
:10580000484611F0B7FF08B94FF07E59294648467F
:1058100011F0BAFF00B9A9464946404611F002FE10
:105820000146384611F0F6FCFFF7A6BA2B4B2C497F
:10583000D3F80090484611F093FF60B349464FF00B
:105840007E5011F0E5FC274911F0ECFD51468346EE
:10585000254811F0DDFC0146584611F0E3FD4946AC
:1058600011F0D8FC194B196811F0DCFD814629466E
:10587000484611F07FFF90B94946164811F086FE60
:1058800008F100480146404611F0CCFD4FF07E5132
:1058900011F0C0FCABE70D4BD3F80090E7E7A94649
:1058A000A6E700BF4E1200205621002090290020BC
:1058B0003C1A00205821002080100020C431002014
:1058C000B81A0020CDCCCC3D703000206C300020C8
:1058D000743000200000C84268300020783000207A
:1058E000AE47813F610BB63B00003443B04B1B68B1
:1058F0009B077FF575AA0A9B059AB3F90000AD4B8B
:1059000033F91230C01A11F039FDAB4B0746AB49E1
:10591000186811F087FD0146384611F083FD59469D
:10592000074611F075FC8046FFF75ABAD046FFF7DC
:1059300057BA4FF001034FF07E51D4F8E8001093AE
:1059400011F022FFFFF72EBB2946FFF76BBB94F83F
:10595000F830002B3FF4C9ABFFF7C2BB072B04D1D3
:1059600004F0FCFC0790FFF7FCBB00230793FFF754
:10597000F8BBB4F8380111F001FD8146014630460C
:1059800011F002FFF0B18E4BD4F83C111868C4F846
:105990001811C4F82411C4F8200111F039FC0123B6
:1059A000C4F8280184F82C31304611F03DFF4946F7
:1059B000A4F81401304611F02BFCC4F83001D4F8DF
:1059C00040510EE4B4F81431434514D87D4BD4F85B
:1059D0001C111868C4F82011C4F81801C4F8241167
:1059E00011F016FCFF23C4F8280184F82C31C4F808
:1059F0003051FFF7F4BB724BD4F83C111868C4F86F
:105A00001811C4F82001C4F8241111F001FC01237D
:105A1000C4F8280184F82C31C4F83051CFE76A4B20
:105A2000588B11F0ABFC0146F06811F0F1FB654BAF
:105A3000C4F830011968624BC4F818111868C4F82A
:105A40002411C4F8200111F0E3FB0123D4F84451E0
:105A5000C4F8280184F82C31FFF7C3BBB04636E404
:105A6000D9F8041040460D9311F0DCFCD9F8081069
:105A70000C90304611F0D6FC0C9A0146104611F0FD
:105A8000C9FBD9F80C100C90204611F0CBFC0C9AF5
:105A90000146104611F0BEFB394611F0C3FC5946D1
:105AA0000C9011F07BFE0C9A0D9B70B9114650467C
:105AB00011F060FE0C9A0D9B00B9924614A941F8B2
:105AC000232009F1100901336EE49346F6E756F8F6
:105AD0002500394611F0A6FC46F8250001357EE484
